{
  "_format": "hh-sol-artifact-1",
  "contractName": "FuckingNftAwesome",
  "sourceName": "contracts/FuckingNftAwesome.sol",
  "abi": [
    {
      "inputs": [],
      "stateMutability": "nonpayable",
      "type": "constructor"
    },
    {
      "anonymous": false,
      "inputs": [
        {
          "indexed": true,
          "internalType": "address",
          "name": "owner",
          "type": "address"
        },
        {
          "indexed": true,
          "internalType": "address",
          "name": "approved",
          "type": "address"
        },
        {
          "indexed": true,
          "internalType": "uint256",
          "name": "tokenId",
          "type": "uint256"
        }
      ],
      "name": "Approval",
      "type": "event"
    },
    {
      "anonymous": false,
      "inputs": [
        {
          "indexed": true,
          "internalType": "address",
          "name": "owner",
          "type": "address"
        },
        {
          "indexed": true,
          "internalType": "address",
          "name": "operator",
          "type": "address"
        },
        {
          "indexed": false,
          "internalType": "bool",
          "name": "approved",
          "type": "bool"
        }
      ],
      "name": "ApprovalForAll",
      "type": "event"
    },
    {
      "anonymous": false,
      "inputs": [
        {
          "indexed": false,
          "internalType": "address",
          "name": "sender",
          "type": "address"
        },
        {
          "indexed": false,
          "internalType": "uint256",
          "name": "tokenId",
          "type": "uint256"
        },
        {
          "indexed": false,
          "internalType": "string",
          "name": "",
          "type": "string"
        }
      ],
      "name": "NewEpicNFTMinted",
      "type": "event"
    },
    {
      "anonymous": false,
      "inputs": [
        {
          "indexed": true,
          "internalType": "address",
          "name": "from",
          "type": "address"
        },
        {
          "indexed": true,
          "internalType": "address",
          "name": "to",
          "type": "address"
        },
        {
          "indexed": true,
          "internalType": "uint256",
          "name": "tokenId",
          "type": "uint256"
        }
      ],
      "name": "Transfer",
      "type": "event"
    },
    {
      "inputs": [
        {
          "internalType": "address",
          "name": "to",
          "type": "address"
        },
        {
          "internalType": "uint256",
          "name": "tokenId",
          "type": "uint256"
        }
      ],
      "name": "approve",
      "outputs": [],
      "stateMutability": "nonpayable",
      "type": "function"
    },
    {
      "inputs": [
        {
          "internalType": "address",
          "name": "owner",
          "type": "address"
        }
      ],
      "name": "balanceOf",
      "outputs": [
        {
          "internalType": "uint256",
          "name": "",
          "type": "uint256"
        }
      ],
      "stateMutability": "view",
      "type": "function"
    },
    {
      "inputs": [
        {
          "internalType": "uint256",
          "name": "tokenId",
          "type": "uint256"
        }
      ],
      "name": "getApproved",
      "outputs": [
        {
          "internalType": "address",
          "name": "",
          "type": "address"
        }
      ],
      "stateMutability": "view",
      "type": "function"
    },
    {
      "inputs": [],
      "name": "getLimitMints",
      "outputs": [
        {
          "internalType": "uint256",
          "name": "",
          "type": "uint256"
        }
      ],
      "stateMutability": "view",
      "type": "function"
    },
    {
      "inputs": [
        {
          "internalType": "address",
          "name": "owner",
          "type": "address"
        },
        {
          "internalType": "address",
          "name": "operator",
          "type": "address"
        }
      ],
      "name": "isApprovedForAll",
      "outputs": [
        {
          "internalType": "bool",
          "name": "",
          "type": "bool"
        }
      ],
      "stateMutability": "view",
      "type": "function"
    },
    {
      "inputs": [],
      "name": "makeAFuckingNFT",
      "outputs": [],
      "stateMutability": "nonpayable",
      "type": "function"
    },
    {
      "inputs": [],
      "name": "name",
      "outputs": [
        {
          "internalType": "string",
          "name": "",
          "type": "string"
        }
      ],
      "stateMutability": "view",
      "type": "function"
    },
    {
      "inputs": [
        {
          "internalType": "uint256",
          "name": "tokenId",
          "type": "uint256"
        }
      ],
      "name": "ownerOf",
      "outputs": [
        {
          "internalType": "address",
          "name": "",
          "type": "address"
        }
      ],
      "stateMutability": "view",
      "type": "function"
    },
    {
      "inputs": [
        {
          "internalType": "uint256",
          "name": "tokenId",
          "type": "uint256"
        }
      ],
      "name": "randomColor",
      "outputs": [
        {
          "internalType": "string",
          "name": "",
          "type": "string"
        }
      ],
      "stateMutability": "view",
      "type": "function"
    },
    {
      "inputs": [
        {
          "internalType": "uint256",
          "name": "tokenId",
          "type": "uint256"
        }
      ],
      "name": "randomNumber",
      "outputs": [
        {
          "components": [
            {
              "internalType": "string",
              "name": "firstWord",
              "type": "string"
            },
            {
              "internalType": "string",
              "name": "secondWord",
              "type": "string"
            },
            {
              "internalType": "string",
              "name": "thirdWord",
              "type": "string"
            }
          ],
          "internalType": "struct FuckingNftAwesome.Words",
          "name": "",
          "type": "tuple"
        }
      ],
      "stateMutability": "view",
      "type": "function"
    },
    {
      "inputs": [
        {
          "internalType": "address",
          "name": "from",
          "type": "address"
        },
        {
          "internalType": "address",
          "name": "to",
          "type": "address"
        },
        {
          "internalType": "uint256",
          "name": "tokenId",
          "type": "uint256"
        }
      ],
      "name": "safeTransferFrom",
      "outputs": [],
      "stateMutability": "nonpayable",
      "type": "function"
    },
    {
      "inputs": [
        {
          "internalType": "address",
          "name": "from",
          "type": "address"
        },
        {
          "internalType": "address",
          "name": "to",
          "type": "address"
        },
        {
          "internalType": "uint256",
          "name": "tokenId",
          "type": "uint256"
        },
        {
          "internalType": "bytes",
          "name": "_data",
          "type": "bytes"
        }
      ],
      "name": "safeTransferFrom",
      "outputs": [],
      "stateMutability": "nonpayable",
      "type": "function"
    },
    {
      "inputs": [
        {
          "internalType": "address",
          "name": "operator",
          "type": "address"
        },
        {
          "internalType": "bool",
          "name": "approved",
          "type": "bool"
        }
      ],
      "name": "setApprovalForAll",
      "outputs": [],
      "stateMutability": "nonpayable",
      "type": "function"
    },
    {
      "inputs": [
        {
          "internalType": "bytes4",
          "name": "interfaceId",
          "type": "bytes4"
        }
      ],
      "name": "supportsInterface",
      "outputs": [
        {
          "internalType": "bool",
          "name": "",
          "type": "bool"
        }
      ],
      "stateMutability": "view",
      "type": "function"
    },
    {
      "inputs": [],
      "name": "symbol",
      "outputs": [
        {
          "internalType": "string",
          "name": "",
          "type": "string"
        }
      ],
      "stateMutability": "view",
      "type": "function"
    },
    {
      "inputs": [
        {
          "internalType": "uint256",
          "name": "tokenId",
          "type": "uint256"
        }
      ],
      "name": "tokenURI",
      "outputs": [
        {
          "internalType": "string",
          "name": "",
          "type": "string"
        }
      ],
      "stateMutability": "view",
      "type": "function"
    },
    {
      "inputs": [
        {
          "internalType": "address",
          "name": "from",
          "type": "address"
        },
        {
          "internalType": "address",
          "name": "to",
          "type": "address"
        },
        {
          "internalType": "uint256",
          "name": "tokenId",
          "type": "uint256"
        }
      ],
      "name": "transferFrom",
      "outputs": [],
      "stateMutability": "nonpayable",
      "type": "function"
    }
  ],
  "bytecode": "0x608060405260405180610100016040528060d3815260200162004e2c60d39139600890805190602001906200003692919062000e32565b5060405180608001604052806057815260200162004eff60579139600990805190602001906200006892919062000e32565b50604051806101e001604052806040518060400160405280600781526020017f416d617a696e670000000000000000000000000000000000000000000000000081525081526020016040518060400160405280600781526020017f417765736f6d650000000000000000000000000000000000000000000000000081525081526020016040518060400160405280600a81526020017f496e6372656469626c650000000000000000000000000000000000000000000081525081526020016040518060400160405280600a81526020017f496e76656e7369626c650000000000000000000000000000000000000000000081525081526020016040518060400160405280600481526020017f466f6f6c0000000000000000000000000000000000000000000000000000000081525081526020016040518060400160405280600381526020017f426967000000000000000000000000000000000000000000000000000000000081525081526020016040518060400160405280600681526020017f4c6974746c65000000000000000000000000000000000000000000000000000081525081526020016040518060400160405280600481526020017f426162790000000000000000000000000000000000000000000000000000000081525081526020016040518060400160405280600481526020017f4461726b0000000000000000000000000000000000000000000000000000000081525081526020016040518060400160405280600881526020017f486f706566756c6c00000000000000000000000000000000000000000000000081525081526020016040518060400160405280600881526020017f486f70656c65737300000000000000000000000000000000000000000000000081525081526020016040518060400160405280600781526020017f46756325336e670000000000000000000000000000000000000000000000000081525081526020016040518060400160405280600581526020017f486174656400000000000000000000000000000000000000000000000000000081525081526020016040518060400160405280600581526020017f4c6f76656400000000000000000000000000000000000000000000000000000081525081526020016040518060400160405280600481526020017f536c6f7700000000000000000000000000000000000000000000000000000000815250815250600a90600f620003fa92919062000ec3565b50604051806101e001604052806040518060400160405280600681526020017f4261746d616e000000000000000000000000000000000000000000000000000081525081526020016040518060400160405280600481526020017f48756c6b0000000000000000000000000000000000000000000000000000000081525081526020016040518060400160405280600981526020017f53697065722d6d616e000000000000000000000000000000000000000000000081525081526020016040518060400160405280600981526020017f53757065722d6d616e000000000000000000000000000000000000000000000081525081526020016040518060400160405280600881526020017f49726f6e2d6d616e00000000000000000000000000000000000000000000000081525081526020016040518060400160405280600581526020017f526f62696e00000000000000000000000000000000000000000000000000000081525081526020016040518060400160405280600c81526020017f426c61636b50616e74686572000000000000000000000000000000000000000081525081526020016040518060400160405280600781526020017f4b69636b4173730000000000000000000000000000000000000000000000000081525081526020016040518060400160405280600781526020017f4869744769726c0000000000000000000000000000000000000000000000000081525081526020016040518060400160405280600b81526020017f426c61636b43616e61727900000000000000000000000000000000000000000081525081526020016040518060400160405280600581526020017f4172726f7700000000000000000000000000000000000000000000000000000081525081526020016040518060400160405280600581526020017f466c61736800000000000000000000000000000000000000000000000000000081525081526020016040518060400160405280600981526020017f4e6967687457696e67000000000000000000000000000000000000000000000081525081526020016040518060400160405280600981526020017f536361726563726f77000000000000000000000000000000000000000000000081525081526020016040518060400160405280600581526020017f4a6f6b6572000000000000000000000000000000000000000000000000000000815250815250600b90600f6200078c92919062000ec3565b50604051806101e001604052806040518060400160405280600581526020017f53616c616400000000000000000000000000000000000000000000000000000081525081526020016040518060400160405280600a81526020017f48616d627572677565720000000000000000000000000000000000000000000081525081526020016040518060400160405280600681526020017f546f6d61746f000000000000000000000000000000000000000000000000000081525081526020016040518060400160405280600681526020017f42616e616e61000000000000000000000000000000000000000000000000000081525081526020016040518060400160405280600481526020017f436f6b650000000000000000000000000000000000000000000000000000000081525081526020016040518060400160405280600481526020017f526963650000000000000000000000000000000000000000000000000000000081525081526020016040518060400160405280600481526020017f4265616e0000000000000000000000000000000000000000000000000000000081525081526020016040518060400160405280600481526020017f43616b650000000000000000000000000000000000000000000000000000000081525081526020016040518060400160405280600781526020017f42726f776e69650000000000000000000000000000000000000000000000000081525081526020016040518060400160405280600481526020017f426565720000000000000000000000000000000000000000000000000000000081525081526020016040518060400160405280600581526020017f50697a7a6100000000000000000000000000000000000000000000000000000081525081526020016040518060400160405280600781526020017f4275727269746f0000000000000000000000000000000000000000000000000081525081526020016040518060400160405280600481526020017f5461636f0000000000000000000000000000000000000000000000000000000081525081526020016040518060400160405280600481526020017f426565660000000000000000000000000000000000000000000000000000000081525081526020016040518060400160405280600781526020017f436869636b656e00000000000000000000000000000000000000000000000000815250815250600c90600f62000b1e92919062000ec3565b506040518060a001604052806040518060400160405280600781526020017f233230303833420000000000000000000000000000000000000000000000000081525081526020016040518060400160405280600781526020017f234232333043440000000000000000000000000000000000000000000000000081525081526020016040518060400160405280600781526020017f234144323536430000000000000000000000000000000000000000000000000081525081526020016040518060400160405280600781526020017f233046364646460000000000000000000000000000000000000000000000000081525081526020016040518060400160405280600781526020017f2335463945464600000000000000000000000000000000000000000000000000815250815250600d90600562000c6192919062000f2a565b50601e600e5534801562000c7457600080fd5b506040518060400160405280600a81526020017f617765736f6d654e4654000000000000000000000000000000000000000000008152506040518060400160405280600781526020017f415745534f4d4500000000000000000000000000000000000000000000000000815250816000908051906020019062000cf992919062000e32565b50806001908051906020019062000d1292919062000e32565b50505062000d606040518060400160405280601e81526020017f54686973206973206d79204e465420636f6e74726163742e2057686f6121000081525062000d6660201b620012071760201c565b6200114b565b62000e068160405160240162000d7d91906200105f565b6040516020818303038152906040527f41304fac000000000000000000000000000000000000000000000000000000007bffffffffffffffffffffffffffffffffffffffffffffffffffffffff19166020820180517bffffffffffffffffffffffffffffffffffffffffffffffffffffffff838183161783525050505062000e0960201b60201c565b50565b60008151905060006a636f6e736f6c652e6c6f679050602083016000808483855afa5050505050565b82805462000e4090620010d5565b90600052602060002090601f01602090048101928262000e64576000855562000eb0565b82601f1062000e7f57805160ff191683800117855562000eb0565b8280016001018555821562000eb0579182015b8281111562000eaf57825182559160200191906001019062000e92565b5b50905062000ebf919062000f91565b5090565b82805482825590600052602060002090810192821562000f17579160200282015b8281111562000f1657825182908051906020019062000f0592919062000e32565b509160200191906001019062000ee4565b5b50905062000f26919062000fb0565b5090565b82805482825590600052602060002090810192821562000f7e579160200282015b8281111562000f7d57825182908051906020019062000f6c92919062000e32565b509160200191906001019062000f4b565b5b50905062000f8d919062000fb0565b5090565b5b8082111562000fac57600081600090555060010162000f92565b5090565b5b8082111562000fd4576000818162000fca919062000fd8565b5060010162000fb1565b5090565b50805462000fe690620010d5565b6000825580601f1062000ffa57506200101b565b601f0160209004906000526020600020908101906200101a919062000f91565b5b50565b60006200102b8262001083565b6200103781856200108e565b9350620010498185602086016200109f565b62001054816200113a565b840191505092915050565b600060208201905081810360008301526200107b81846200101e565b905092915050565b600081519050919050565b600082825260208201905092915050565b60005b83811015620010bf578082015181840152602081019050620010a2565b83811115620010cf576000848401525b50505050565b60006002820490506001821680620010ee57607f821691505b602082108114156200110557620011046200110b565b5b50919050565b7f4e487b7100000000000000000000000000000000000000000000000000000000600052602260045260246000fd5b6000601f19601f8301169050919050565b613cd1806200115b6000396000f3fe608060405234801561001057600080fd5b506004361061010b5760003560e01c806370a08231116100a2578063b88d4fde11610071578063b88d4fde146102ca578063c87b56dd146102e6578063d3d32f3114610316578063e985e9c514610320578063f970dd02146103505761010b565b806370a08231146102305780637bb1b9741461026057806395d89b4114610290578063a22cb465146102ae5761010b565b80630dbe4902116100de5780630dbe4902146101aa57806323b872dd146101c857806342842e0e146101e45780636352211e146102005761010b565b806301ffc9a71461011057806306fdde0314610140578063081812fc1461015e578063095ea7b31461018e575b600080fd5b61012a60048036038101906101259190612654565b610380565b6040516101379190612e47565b60405180910390f35b610148610462565b6040516101559190612e62565b60405180910390f35b610178600480360381019061017391906126a6565b6104f4565b6040516101859190612da2565b60405180910390f35b6101a860048036038101906101a39190612618565b610579565b005b6101b2610691565b6040516101bf9190613104565b60405180910390f35b6101e260048036038101906101dd9190612512565b61069b565b005b6101fe60048036038101906101f99190612512565b6106fb565b005b61021a600480360381019061021591906126a6565b61071b565b6040516102279190612da2565b60405180910390f35b61024a600480360381019061024591906124ad565b6107cd565b6040516102579190613104565b60405180910390f35b61027a600480360381019061027591906126a6565b610885565b6040516102879190612e62565b60405180910390f35b6102986109a3565b6040516102a59190612e62565b60405180910390f35b6102c860048036038101906102c391906125dc565b610a35565b005b6102e460048036038101906102df9190612561565b610a4b565b005b61030060048036038101906102fb91906126a6565b610aad565b60405161030d9190612e62565b60405180910390f35b61031e610bff565b005b61033a600480360381019061033591906124d6565b610e58565b6040516103479190612e47565b60405180910390f35b61036a600480360381019061036591906126a6565b610eec565b60405161037791906130e2565b60405180910390f35b60007f80ac58cd000000000000000000000000000000000000000000000000000000007bffffffffffffffffffffffffffffffffffffffffffffffffffffffff1916827bffffffffffffffffffffffffffffffffffffffffffffffffffffffff1916148061044b57507f5b5e139f000000000000000000000000000000000000000000000000000000007bffffffffffffffffffffffffffffffffffffffffffffffffffffffff1916827bffffffffffffffffffffffffffffffffffffffffffffffffffffffff1916145b8061045b575061045a826112a0565b5b9050919050565b606060008054610471906133a9565b80601f016020809104026020016040519081016040528092919081815260200182805461049d906133a9565b80156104ea5780601f106104bf576101008083540402835291602001916104ea565b820191906000526020600020905b8154815290600101906020018083116104cd57829003601f168201915b5050505050905090565b60006104ff8261130a565b61053e576040517f08c379a000000000000000000000000000000000000000000000000000000000815260040161053590613042565b60405180910390fd5b6004600083815260200190815260200160002060009054906101000a900473ffffffffffffffffffffffffffffffffffffffff169050919050565b60006105848261071b565b90508073ffffffffffffffffffffffffffffffffffffffff168373ffffffffffffffffffffffffffffffffffffffff1614156105f5576040517f08c379a00000000000000000000000000000000000000000000000000000000081526004016105ec90613082565b60405180910390fd5b8073ffffffffffffffffffffffffffffffffffffffff16610614611376565b73ffffffffffffffffffffffffffffffffffffffff16148061064357506106428161063d611376565b610e58565b5b610682576040517f08c379a000000000000000000000000000000000000000000000000000000000815260040161067990612f82565b60405180910390fd5b61068c838361137e565b505050565b6000600e54905090565b6106ac6106a6611376565b82611437565b6106eb576040517f08c379a00000000000000000000000000000000000000000000000000000000081526004016106e2906130c2565b60405180910390fd5b6106f6838383611515565b505050565b61071683838360405180602001604052806000815250610a4b565b505050565b6000806002600084815260200190815260200160002060009054906101000a900473ffffffffffffffffffffffffffffffffffffffff169050600073ffffffffffffffffffffffffffffffffffffffff168173ffffffffffffffffffffffffffffffffffffffff1614156107c4576040517f08c379a00000000000000000000000000000000000000000000000000000000081526004016107bb90612fc2565b60405180910390fd5b80915050919050565b60008073ffffffffffffffffffffffffffffffffffffffff168273ffffffffffffffffffffffffffffffffffffffff16141561083e576040517f08c379a000000000000000000000000000000000000000000000000000000000815260040161083590612fa2565b60405180910390fd5b600360008373ffffffffffffffffffffffffffffffffffffffff1673ffffffffffffffffffffffffffffffffffffffff168152602001908152602001600020549050919050565b606060006108b96108958461177c565b6040516020016108a59190612d80565b604051602081830303815290604052611929565b9050600d80549050816108cc9190613455565b9050600d8181548110610908577f4e487b7100000000000000000000000000000000000000000000000000000000600052603260045260246000fd5b90600052602060002001805461091d906133a9565b80601f0160208091040260200160405190810160405280929190818152602001828054610949906133a9565b80156109965780601f1061096b57610100808354040283529160200191610996565b820191906000526020600020905b81548152906001019060200180831161097957829003601f168201915b5050505050915050919050565b6060600180546109b2906133a9565b80601f01602080910402602001604051908101604052809291908181526020018280546109de906133a9565b8015610a2b5780601f10610a0057610100808354040283529160200191610a2b565b820191906000526020600020905b815481529060010190602001808311610a0e57829003601f168201915b5050505050905090565b610a47610a40611376565b838361195c565b5050565b610a5c610a56611376565b83611437565b610a9b576040517f08c379a0000000000000000000000000000000000000000000000000000000008152600401610a92906130c2565b60405180910390fd5b610aa784848484611ac9565b50505050565b6060610ab88261130a565b610af7576040517f08c379a0000000000000000000000000000000000000000000000000000000008152600401610aee90613022565b60405180910390fd5b6000600660008481526020019081526020016000208054610b17906133a9565b80601f0160208091040260200160405190810160405280929190818152602001828054610b43906133a9565b8015610b905780601f10610b6557610100808354040283529160200191610b90565b820191906000526020600020905b815481529060010190602001808311610b7357829003601f168201915b505050505090506000610ba1611b25565b9050600081511415610bb7578192505050610bfa565b600082511115610bec578082604051602001610bd4929190612c37565b60405160208183030381529060405292505050610bfa565b610bf584611b3c565b925050505b919050565b600e54610c0c6007611be3565b1115610c4d576040517f08c379a0000000000000000000000000000000000000000000000000000000008152600401610c44906130a2565b60405180910390fd5b6000610c596007611be3565b90506000610c6682610eec565b90506000610c7383610885565b90506000826000015183602001518460400151604051602001610c9893929190612c5b565b60405160208183030381529060405290506000600883600984604051602001610cc49493929190612c8c565b60405160208183030381529060405290506000610d0983610ce484611bf1565b604051602001610cf5929190612cf7565b604051602081830303815290604052611bf1565b9050600081604051602001610d1e9190612d5e565b6040516020818303038152906040529050610d6d6040518060400160405280601581526020017f0a2d2d2d2d2d2d2d2d2d2d2d2d2d2d2d2d2d2d2d2d0000000000000000000000815250611207565b610d9581604051602001610d819190612cd5565b604051602081830303815290604052611207565b610dd36040518060400160405280601581526020017f2d2d2d2d2d2d2d2d2d2d2d2d2d2d2d2d2d2d2d2d0a0000000000000000000000815250611207565b610ddd3388611daf565b610de78782611dcd565b610e0a604051806060016040528060258152602001613c37602591398833611e41565b610e146007611ee0565b7f4d3a24d1178b5e84c3f01818172d8951082caa1dad646fead020c45a049544ef338883604051610e4793929190612e09565b60405180910390a150505050505050565b6000600560008473ffffffffffffffffffffffffffffffffffffffff1673ffffffffffffffffffffffffffffffffffffffff16815260200190815260200160002060008373ffffffffffffffffffffffffffffffffffffffff1673ffffffffffffffffffffffffffffffffffffffff16815260200190815260200160002060009054906101000a900460ff16905092915050565b610ef4612318565b6000610eff8361177c565b604051602001610f0f9190612d3c565b60405160208183030381529060405290506000600a80549050610f3183611929565b610f3b9190613455565b90506000600b80549050610f4e84611929565b610f589190613455565b90506000600c80549050610f6b85611929565b610f759190613455565b905060006040518060600160405280600a8681548110610fbe577f4e487b7100000000000000000000000000000000000000000000000000000000600052603260045260246000fd5b906000526020600020018054610fd3906133a9565b80601f0160208091040260200160405190810160405280929190818152602001828054610fff906133a9565b801561104c5780601f106110215761010080835404028352916020019161104c565b820191906000526020600020905b81548152906001019060200180831161102f57829003601f168201915b50505050508152602001600b8581548110611090577f4e487b7100000000000000000000000000000000000000000000000000000000600052603260045260246000fd5b9060005260206000200180546110a5906133a9565b80601f01602080910402602001604051908101604052809291908181526020018280546110d1906133a9565b801561111e5780601f106110f35761010080835404028352916020019161111e565b820191906000526020600020905b81548152906001019060200180831161110157829003601f168201915b50505050508152602001600c8481548110611162577f4e487b7100000000000000000000000000000000000000000000000000000000600052603260045260246000fd5b906000526020600020018054611177906133a9565b80601f01602080910402602001604051908101604052809291908181526020018280546111a3906133a9565b80156111f05780601f106111c5576101008083540402835291602001916111f0565b820191906000526020600020905b8154815290600101906020018083116111d357829003601f168201915b505050505081525090508095505050505050919050565b61129d8160405160240161121b9190612e62565b6040516020818303038152906040527f41304fac000000000000000000000000000000000000000000000000000000007bffffffffffffffffffffffffffffffffffffffffffffffffffffffff19166020820180517bffffffffffffffffffffffffffffffffffffffffffffffffffffffff8381831617835250505050611ef6565b50565b60007f01ffc9a7000000000000000000000000000000000000000000000000000000007bffffffffffffffffffffffffffffffffffffffffffffffffffffffff1916827bffffffffffffffffffffffffffffffffffffffffffffffffffffffff1916149050919050565b60008073ffffffffffffffffffffffffffffffffffffffff166002600084815260200190815260200160002060009054906101000a900473ffffffffffffffffffffffffffffffffffffffff1673ffffffffffffffffffffffffffffffffffffffff1614159050919050565b600033905090565b816004600083815260200190815260200160002060006101000a81548173ffffffffffffffffffffffffffffffffffffffff021916908373ffffffffffffffffffffffffffffffffffffffff160217905550808273ffffffffffffffffffffffffffffffffffffffff166113f18361071b565b73ffffffffffffffffffffffffffffffffffffffff167f8c5be1e5ebec7d5bd14f71427d1e84f3dd0314c0f7b2291e5b200ac8c7c3b92560405160405180910390a45050565b60006114428261130a565b611481576040517f08c379a000000000000000000000000000000000000000000000000000000000815260040161147890612f62565b60405180910390fd5b600061148c8361071b565b90508073ffffffffffffffffffffffffffffffffffffffff168473ffffffffffffffffffffffffffffffffffffffff1614806114fb57508373ffffffffffffffffffffffffffffffffffffffff166114e3846104f4565b73ffffffffffffffffffffffffffffffffffffffff16145b8061150c575061150b8185610e58565b5b91505092915050565b8273ffffffffffffffffffffffffffffffffffffffff166115358261071b565b73ffffffffffffffffffffffffffffffffffffffff161461158b576040517f08c379a000000000000000000000000000000000000000000000000000000000815260040161158290612ee2565b60405180910390fd5b600073ffffffffffffffffffffffffffffffffffffffff168273ffffffffffffffffffffffffffffffffffffffff1614156115fb576040517f08c379a00000000000000000000000000000000000000000000000000000000081526004016115f290612f22565b60405180910390fd5b611606838383611f1f565b61161160008261137e565b6001600360008573ffffffffffffffffffffffffffffffffffffffff1673ffffffffffffffffffffffffffffffffffffffff168152602001908152602001600020600082825461166191906132bf565b925050819055506001600360008473ffffffffffffffffffffffffffffffffffffffff1673ffffffffffffffffffffffffffffffffffffffff16815260200190815260200160002060008282546116b891906131de565b92505081905550816002600083815260200190815260200160002060006101000a81548173ffffffffffffffffffffffffffffffffffffffff021916908373ffffffffffffffffffffffffffffffffffffffff160217905550808273ffffffffffffffffffffffffffffffffffffffff168473ffffffffffffffffffffffffffffffffffffffff167fddf252ad1be2c89b69c2b068fc378daa952ba7f163c4a11628f55a4df523b3ef60405160405180910390a4611777838383611f24565b505050565b606060008214156117c4576040518060400160405280600181526020017f30000000000000000000000000000000000000000000000000000000000000008152509050611924565b600082905060005b600082146117f65780806117df9061340c565b915050600a826117ef9190613234565b91506117cc565b60008167ffffffffffffffff811115611838577f4e487b7100000000000000000000000000000000000000000000000000000000600052604160045260246000fd5b6040519080825280601f01601f19166020018201604052801561186a5781602001600182028036833780820191505090505b5090505b6000851461191d5760018261188391906132bf565b9150600a856118929190613455565b603061189e91906131de565b60f81b8183815181106118da577f4e487b7100000000000000000000000000000000000000000000000000000000600052603260045260246000fd5b60200101907effffffffffffffffffffffffffffffffffffffffffffffffffffffffffffff1916908160001a905350600a856119169190613234565b945061186e565b8093505050505b919050565b60008160405160200161193c9190612c20565b6040516020818303038152906040528051906020012060001c9050919050565b8173ffffffffffffffffffffffffffffffffffffffff168373ffffffffffffffffffffffffffffffffffffffff1614156119cb576040517f08c379a00000000000000000000000000000000000000000000000000000000081526004016119c290612f42565b60405180910390fd5b80600560008573ffffffffffffffffffffffffffffffffffffffff1673ffffffffffffffffffffffffffffffffffffffff16815260200190815260200160002060008473ffffffffffffffffffffffffffffffffffffffff1673ffffffffffffffffffffffffffffffffffffffff16815260200190815260200160002060006101000a81548160ff0219169083151502179055508173ffffffffffffffffffffffffffffffffffffffff168373ffffffffffffffffffffffffffffffffffffffff167f17307eab39ab6107e8899845ad3d59bd9653f200f220920489ca2b5937696c3183604051611abc9190612e47565b60405180910390a3505050565b611ad4848484611515565b611ae084848484611f29565b611b1f576040517f08c379a0000000000000000000000000000000000000000000000000000000008152600401611b1690612ec2565b60405180910390fd5b50505050565b606060405180602001604052806000815250905090565b6060611b478261130a565b611b86576040517f08c379a0000000000000000000000000000000000000000000000000000000008152600401611b7d90613062565b60405180910390fd5b6000611b90611b25565b90506000815111611bb05760405180602001604052806000815250611bdb565b80611bba8461177c565b604051602001611bcb929190612c37565b6040516020818303038152906040525b915050919050565b600081600001549050919050565b60606000825190506000811415611c1a5760405180602001604052806000815250915050611daa565b60006003600283611c2b91906131de565b611c359190613234565b6004611c419190613265565b90506000602082611c5291906131de565b67ffffffffffffffff811115611c91577f4e487b7100000000000000000000000000000000000000000000000000000000600052604160045260246000fd5b6040519080825280601f01601f191660200182016040528015611cc35781602001600182028036833780820191505090505b5090506000604051806060016040528060408152602001613c5c604091399050600181016020830160005b86811015611d675760038101905062ffffff818a015116603f8160121c168401518060081b905060ff603f83600c1c1686015116810190508060081b905060ff603f8360061c1686015116810190508060081b905060ff603f831686015116810190508060e01b90508084526004840193505050611cee565b506003860660018114611d815760028114611d9157611d9c565b613d3d60f01b6002830352611d9c565b603d60f81b60018303525b508484525050819450505050505b919050565b611dc98282604051806020016040528060008152506120c0565b5050565b611dd68261130a565b611e15576040517f08c379a0000000000000000000000000000000000000000000000000000000008152600401611e0c90612fe2565b60405180910390fd5b80600660008481526020019081526020016000209080519060200190611e3c929190612339565b505050565b611edb838383604051602401611e5993929190612e84565b6040516020818303038152906040527fe3849f79000000000000000000000000000000000000000000000000000000007bffffffffffffffffffffffffffffffffffffffffffffffffffffffff19166020820180517bffffffffffffffffffffffffffffffffffffffffffffffffffffffff8381831617835250505050611ef6565b505050565b6001816000016000828254019250508190555050565b60008151905060006a636f6e736f6c652e6c6f679050602083016000808483855afa5050505050565b505050565b505050565b6000611f4a8473ffffffffffffffffffffffffffffffffffffffff1661211b565b156120b3578373ffffffffffffffffffffffffffffffffffffffff1663150b7a02611f73611376565b8786866040518563ffffffff1660e01b8152600401611f959493929190612dbd565b602060405180830381600087803b158015611faf57600080fd5b505af1925050508015611fe057506040513d601f19601f82011682018060405250810190611fdd919061267d565b60015b612063573d8060008114612010576040519150601f19603f3d011682016040523d82523d6000602084013e612015565b606091505b5060008151141561205b576040517f08c379a000000000000000000000000000000000000000000000000000000000815260040161205290612ec2565b60405180910390fd5b805181602001fd5b63150b7a0260e01b7bffffffffffffffffffffffffffffffffffffffffffffffffffffffff1916817bffffffffffffffffffffffffffffffffffffffffffffffffffffffff1916149150506120b8565b600190505b949350505050565b6120ca838361213e565b6120d76000848484611f29565b612116576040517f08c379a000000000000000000000000000000000000000000000000000000000815260040161210d90612ec2565b60405180910390fd5b505050565b6000808273ffffffffffffffffffffffffffffffffffffffff163b119050919050565b600073ffffffffffffffffffffffffffffffffffffffff168273ffffffffffffffffffffffffffffffffffffffff1614156121ae576040517f08c379a00000000000000000000000000000000000000000000000000000000081526004016121a590613002565b60405180910390fd5b6121b78161130a565b156121f7576040517f08c379a00000000000000000000000000000000000000000000000000000000081526004016121ee90612f02565b60405180910390fd5b61220360008383611f1f565b6001600360008473ffffffffffffffffffffffffffffffffffffffff1673ffffffffffffffffffffffffffffffffffffffff168152602001908152602001600020600082825461225391906131de565b92505081905550816002600083815260200190815260200160002060006101000a81548173ffffffffffffffffffffffffffffffffffffffff021916908373ffffffffffffffffffffffffffffffffffffffff160217905550808273ffffffffffffffffffffffffffffffffffffffff16600073ffffffffffffffffffffffffffffffffffffffff167fddf252ad1be2c89b69c2b068fc378daa952ba7f163c4a11628f55a4df523b3ef60405160405180910390a461231460008383611f24565b5050565b60405180606001604052806060815260200160608152602001606081525090565b828054612345906133a9565b90600052602060002090601f01602090048101928261236757600085556123ae565b82601f1061238057805160ff19168380011785556123ae565b828001600101855582156123ae579182015b828111156123ad578251825591602001919060010190612392565b5b5090506123bb91906123bf565b5090565b5b808211156123d85760008160009055506001016123c0565b5090565b60006123ef6123ea84613144565b61311f565b90508281526020810184848401111561240757600080fd5b612412848285613367565b509392505050565b60008135905061242981613bda565b92915050565b60008135905061243e81613bf1565b92915050565b60008135905061245381613c08565b92915050565b60008151905061246881613c08565b92915050565b600082601f83011261247f57600080fd5b813561248f8482602086016123dc565b91505092915050565b6000813590506124a781613c1f565b92915050565b6000602082840312156124bf57600080fd5b60006124cd8482850161241a565b91505092915050565b600080604083850312156124e957600080fd5b60006124f78582860161241a565b92505060206125088582860161241a565b9150509250929050565b60008060006060848603121561252757600080fd5b60006125358682870161241a565b93505060206125468682870161241a565b925050604061255786828701612498565b9150509250925092565b6000806000806080858703121561257757600080fd5b60006125858782880161241a565b94505060206125968782880161241a565b93505060406125a787828801612498565b925050606085013567ffffffffffffffff8111156125c457600080fd5b6125d08782880161246e565b91505092959194509250565b600080604083850312156125ef57600080fd5b60006125fd8582860161241a565b925050602061260e8582860161242f565b9150509250929050565b6000806040838503121561262b57600080fd5b60006126398582860161241a565b925050602061264a85828601612498565b9150509250929050565b60006020828403121561266657600080fd5b600061267484828501612444565b91505092915050565b60006020828403121561268f57600080fd5b600061269d84828501612459565b91505092915050565b6000602082840312156126b857600080fd5b60006126c684828501612498565b91505092915050565b6126d8816132f3565b82525050565b6126e781613305565b82525050565b60006126f88261318a565b61270281856131a0565b9350612712818560208601613376565b61271b81613542565b840191505092915050565b600061273182613195565b61273b81856131b1565b935061274b818560208601613376565b61275481613542565b840191505092915050565b600061276a82613195565b61277481856131c2565b9350612784818560208601613376565b61278d81613542565b840191505092915050565b60006127a382613195565b6127ad81856131d3565b93506127bd818560208601613376565b80840191505092915050565b600081546127d6816133a9565b6127e081866131d3565b945060018216600081146127fb576001811461280c5761283f565b60ff1983168652818601935061283f565b61281585613175565b60005b8381101561283757815481890152600182019150602081019050612818565b838801955050505b50505092915050565b60006128556025836131d3565b915061286082613553565b602582019050919050565b60006128786032836131c2565b9150612883826135a2565b604082019050919050565b600061289b6025836131c2565b91506128a6826135f1565b604082019050919050565b60006128be601c836131c2565b91506128c982613640565b602082019050919050565b60006128e16024836131c2565b91506128ec82613669565b604082019050919050565b60006129046019836131c2565b915061290f826136b8565b602082019050919050565b60006129276063836131d3565b9150612932826136e1565b606382019050919050565b600061294a602c836131c2565b91506129558261377c565b604082019050919050565b600061296d600d836131d3565b9150612978826137cb565b600d82019050919050565b60006129906038836131c2565b915061299b826137f4565b604082019050919050565b60006129b3602a836131c2565b91506129be82613843565b604082019050919050565b60006129d66029836131c2565b91506129e182613892565b604082019050919050565b60006129f9602e836131c2565b9150612a04826138e1565b604082019050919050565b6000612a1c6002836131d3565b9150612a2782613930565b600282019050919050565b6000612a3f6020836131c2565b9150612a4a82613959565b602082019050919050565b6000612a626031836131c2565b9150612a6d82613982565b604082019050919050565b6000612a85602c836131c2565b9150612a90826139d1565b604082019050919050565b6000612aa8602f836131c2565b9150612ab382613a20565b604082019050919050565b6000612acb600a836131d3565b9150612ad682613a6f565b600a82019050919050565b6000612aee6021836131c2565b9150612af982613a98565b604082019050919050565b6000612b11600a836131d3565b9150612b1c82613ae7565b600a82019050919050565b6000612b34601d836131d3565b9150612b3f82613b10565b601d82019050919050565b6000612b57600f836131c2565b9150612b6282613b39565b602082019050919050565b6000612b7a6031836131c2565b9150612b8582613b62565b604082019050919050565b6000612b9d6005836131d3565b9150612ba882613bb1565b600582019050919050565b60006060830160008301518482036000860152612bd08282612726565b91505060208301518482036020860152612bea8282612726565b91505060408301518482036040860152612c048282612726565b9150508091505092915050565b612c1a8161335d565b82525050565b6000612c2c8284612798565b915081905092915050565b6000612c438285612798565b9150612c4f8284612798565b91508190509392505050565b6000612c678286612798565b9150612c738285612798565b9150612c7f8284612798565b9150819050949350505050565b6000612c9882876127c9565b9150612ca48286612798565b9150612cb082856127c9565b9150612cbc8284612798565b9150612cc782612960565b915081905095945050505050565b6000612ce082612848565b9150612cec8284612798565b915081905092915050565b6000612d0282612abe565b9150612d0e8285612798565b9150612d198261291a565b9150612d258284612798565b9150612d3082612a0f565b91508190509392505050565b6000612d4782612b04565b9150612d538284612798565b915081905092915050565b6000612d6982612b27565b9150612d758284612798565b915081905092915050565b6000612d8b82612b90565b9150612d978284612798565b915081905092915050565b6000602082019050612db760008301846126cf565b92915050565b6000608082019050612dd260008301876126cf565b612ddf60208301866126cf565b612dec6040830185612c11565b8181036060830152612dfe81846126ed565b905095945050505050565b6000606082019050612e1e60008301866126cf565b612e2b6020830185612c11565b8181036040830152612e3d818461275f565b9050949350505050565b6000602082019050612e5c60008301846126de565b92915050565b60006020820190508181036000830152612e7c818461275f565b905092915050565b60006060820190508181036000830152612e9e818661275f565b9050612ead6020830185612c11565b612eba60408301846126cf565b949350505050565b60006020820190508181036000830152612edb8161286b565b9050919050565b60006020820190508181036000830152612efb8161288e565b9050919050565b60006020820190508181036000830152612f1b816128b1565b9050919050565b60006020820190508181036000830152612f3b816128d4565b9050919050565b60006020820190508181036000830152612f5b816128f7565b9050919050565b60006020820190508181036000830152612f7b8161293d565b9050919050565b60006020820190508181036000830152612f9b81612983565b9050919050565b60006020820190508181036000830152612fbb816129a6565b9050919050565b60006020820190508181036000830152612fdb816129c9565b9050919050565b60006020820190508181036000830152612ffb816129ec565b9050919050565b6000602082019050818103600083015261301b81612a32565b9050919050565b6000602082019050818103600083015261303b81612a55565b9050919050565b6000602082019050818103600083015261305b81612a78565b9050919050565b6000602082019050818103600083015261307b81612a9b565b9050919050565b6000602082019050818103600083015261309b81612ae1565b9050919050565b600060208201905081810360008301526130bb81612b4a565b9050919050565b600060208201905081810360008301526130db81612b6d565b9050919050565b600060208201905081810360008301526130fc8184612bb3565b905092915050565b60006020820190506131196000830184612c11565b92915050565b600061312961313a565b905061313582826133db565b919050565b6000604051905090565b600067ffffffffffffffff82111561315f5761315e613513565b5b61316882613542565b9050602081019050919050565b60008190508160005260206000209050919050565b600081519050919050565b600081519050919050565b600082825260208201905092915050565b600082825260208201905092915050565b600082825260208201905092915050565b600081905092915050565b60006131e98261335d565b91506131f48361335d565b9250827fffffffffffffffffffffffffffffffffffffffffffffffffffffffffffffffff0382111561322957613228613486565b5b828201905092915050565b600061323f8261335d565b915061324a8361335d565b92508261325a576132596134b5565b5b828204905092915050565b60006132708261335d565b915061327b8361335d565b9250817fffffffffffffffffffffffffffffffffffffffffffffffffffffffffffffffff04831182151516156132b4576132b3613486565b5b828202905092915050565b60006132ca8261335d565b91506132d58361335d565b9250828210156132e8576132e7613486565b5b828203905092915050565b60006132fe8261333d565b9050919050565b60008115159050919050565b60007fffffffff0000000000000000000000000000000000000000000000000000000082169050919050565b600073ffffffffffffffffffffffffffffffffffffffff82169050919050565b6000819050919050565b82818337600083830152505050565b60005b83811015613394578082015181840152602081019050613379565b838111156133a3576000848401525b50505050565b600060028204905060018216806133c157607f821691505b602082108114156133d5576133d46134e4565b5b50919050565b6133e482613542565b810181811067ffffffffffffffff8211171561340357613402613513565b5b80604052505050565b60006134178261335d565b91507fffffffffffffffffffffffffffffffffffffffffffffffffffffffffffffffff82141561344a57613449613486565b5b600182019050919050565b60006134608261335d565b915061346b8361335d565b92508261347b5761347a6134b5565b5b828206905092915050565b7f4e487b7100000000000000000000000000000000000000000000000000000000600052601160045260246000fd5b7f4e487b7100000000000000000000000000000000000000000000000000000000600052601260045260246000fd5b7f4e487b7100000000000000000000000000000000000000000000000000000000600052602260045260246000fd5b7f4e487b7100000000000000000000000000000000000000000000000000000000600052604160045260246000fd5b6000601f19601f8301169050919050565b7f68747470733a2f2f6e6674707265766965772e30786465762e636f6465732f3f60008201527f636f64653d000000000000000000000000000000000000000000000000000000602082015250565b7f4552433732313a207472616e7366657220746f206e6f6e20455243373231526560008201527f63656976657220696d706c656d656e7465720000000000000000000000000000602082015250565b7f4552433732313a207472616e736665722066726f6d20696e636f72726563742060008201527f6f776e6572000000000000000000000000000000000000000000000000000000602082015250565b7f4552433732313a20746f6b656e20616c7265616479206d696e74656400000000600082015250565b7f4552433732313a207472616e7366657220746f20746865207a65726f2061646460008201527f7265737300000000000000000000000000000000000000000000000000000000602082015250565b7f4552433732313a20617070726f766520746f2063616c6c657200000000000000600082015250565b7f222c20226465736372697074696f6e223a20224120686967686c79206163636c60008201527f61696d656420636f6c6c656374696f6e206f6620737175617265732e222c202260208201527f696d616765223a2022646174613a696d6167652f7376672b786d6c3b6261736560408201527f36342c0000000000000000000000000000000000000000000000000000000000606082015250565b7f4552433732313a206f70657261746f7220717565727920666f72206e6f6e657860008201527f697374656e7420746f6b656e0000000000000000000000000000000000000000602082015250565b7f3c2f746578743e3c2f7376673e00000000000000000000000000000000000000600082015250565b7f4552433732313a20617070726f76652063616c6c6572206973206e6f74206f7760008201527f6e6572206e6f7220617070726f76656420666f7220616c6c0000000000000000602082015250565b7f4552433732313a2062616c616e636520717565727920666f7220746865207a6560008201527f726f206164647265737300000000000000000000000000000000000000000000602082015250565b7f4552433732313a206f776e657220717565727920666f72206e6f6e657869737460008201527f656e7420746f6b656e0000000000000000000000000000000000000000000000602082015250565b7f45524337323155524953746f726167653a2055524920736574206f66206e6f6e60008201527f6578697374656e7420746f6b656e000000000000000000000000000000000000602082015250565b7f227d000000000000000000000000000000000000000000000000000000000000600082015250565b7f4552433732313a206d696e7420746f20746865207a65726f2061646472657373600082015250565b7f45524337323155524953746f726167653a2055524920717565727920666f722060008201527f6e6f6e6578697374656e7420746f6b656e000000000000000000000000000000602082015250565b7f4552433732313a20617070726f76656420717565727920666f72206e6f6e657860008201527f697374656e7420746f6b656e0000000000000000000000000000000000000000602082015250565b7f4552433732314d657461646174613a2055524920717565727920666f72206e6f60008201527f6e6578697374656e7420746f6b656e0000000000000000000000000000000000602082015250565b7f7b226e616d65223a202200000000000000000000000000000000000000000000600082015250565b7f4552433732313a20617070726f76616c20746f2063757272656e74206f776e6560008201527f7200000000000000000000000000000000000000000000000000000000000000602082015250565b7f46495253545f574f524400000000000000000000000000000000000000000000600082015250565b7f646174613a6170706c69636174696f6e2f6a736f6e3b6261736536342c000000600082015250565b7f497320696e20746865206c696d69740000000000000000000000000000000000600082015250565b7f4552433732313a207472616e736665722063616c6c6572206973206e6f74206f60008201527f776e6572206e6f7220617070726f766564000000000000000000000000000000602082015250565b7f434f4c4f52000000000000000000000000000000000000000000000000000000600082015250565b613be3816132f3565b8114613bee57600080fd5b50565b613bfa81613305565b8114613c0557600080fd5b50565b613c1181613311565b8114613c1c57600080fd5b50565b613c288161335d565b8114613c3357600080fd5b5056fe416e204e465420772f20494420257320686173206265656e206d696e74656420746f2025734142434445464748494a4b4c4d4e4f505152535455565758595a6162636465666768696a6b6c6d6e6f707172737475767778797a303132333435363738392b2fa2646970667358221220bb4b341e9153f54edb6c744e26beccf763e0e871ee6ec00d7c1c11b692a9177f64736f6c634300080100333c73766720786d6c6e733d27687474703a2f2f7777772e77332e6f72672f323030302f73766727207072657365727665417370656374526174696f3d27784d696e594d696e206d656574272076696577426f783d273020302033353020333530273e3c7374796c653e2e62617365207b2066696c6c3a2077686974653b20666f6e742d66616d696c793a2073657269663b20666f6e742d73697a653a20323470783b207d3c2f7374796c653e3c726563742077696474683d273130302527206865696768743d2731303025272066696c6c3d2727202f3e3c7465787420783d273530252720793d273530252720636c6173733d27626173652720646f6d696e616e742d626173656c696e653d276d6964646c652720746578742d616e63686f723d276d6964646c65273e",
  "linkReferences": {},
  "deployedLinkReferences": {}
}